{
  "transactions": [
    {
      "hash": "0x9a504f8a1bfdef818df3285e14b1b5bbbfc709bffc79535e7a01b93e555af729",
      "transactionType": "CALL",
      "contractName": null,
      "contractAddress": "0x779877a7b0d9e8603169ddbd7836e478b4624789",
      "function": "transferAndCall(address,uint256,bytes)",
      "arguments": [
        "0x9DdfaCa8183c41ad55329BdeeD9F6A8d53168B1B",
        "2000000000000000000",
        "0x6a7cdb64ddd9c2c187092b4451c2e3657caafa89efa8493d6d17c35cde60d8c7"
      ],
      "transaction": {
        "from": "0x193ec3560f854e808731ec054406dac0d70c2d18",
        "to": "0x779877a7b0d9e8603169ddbd7836e478b4624789",
        "gas": "0x14cbb",
        "value": "0x0",
        "input": "0x4000aea00000000000000000000000009ddfaca8183c41ad55329bdeed9f6a8d53168b1b0000000000000000000000000000000000000000000000001bc16d674ec80000000000000000000000000000000000000000000000000000000000000000006000000000000000000000000000000000000000000000000000000000000000206a7cdb64ddd9c2c187092b4451c2e3657caafa89efa8493d6d17c35cde60d8c7",
        "nonce": "0x25",
        "chainId": "0xaa36a7"
      },
      "additionalContracts": [],
      "isFixedGasLimit": false
    }
  ],
  "receipts": [
    {
      "status": "0x1",
      "cumulativeGasUsed": "0x390bfcc",
      "logs": [
        {
          "address": "0x779877a7b0d9e8603169ddbd7836e478b4624789",
          "topics": [
            "0xddf252ad1be2c89b69c2b068fc378daa952ba7f163c4a11628f55a4df523b3ef",
            "0x000000000000000000000000193ec3560f854e808731ec054406dac0d70c2d18",
            "0x0000000000000000000000009ddfaca8183c41ad55329bdeed9f6a8d53168b1b"
          ],
          "data": "0x0000000000000000000000000000000000000000000000001bc16d674ec80000",
          "blockHash": "0xf973d8484e858e1b798df2c9145c6e97986aca52aac945ff467338229b0ac30b",
          "blockNumber": "0x99f3ef",
          "blockTimestamp": "0x69705660",
          "transactionHash": "0x9a504f8a1bfdef818df3285e14b1b5bbbfc709bffc79535e7a01b93e555af729",
          "transactionIndex": "0x33",
          "logIndex": "0x6a",
          "removed": false
        },
        {
          "address": "0x779877a7b0d9e8603169ddbd7836e478b4624789",
          "topics": [
            "0xe19260aff97b920c7df27010903aeb9c8d2be5d310a2c67824cf3f15396e4c16",
            "0x000000000000000000000000193ec3560f854e808731ec054406dac0d70c2d18",
            "0x0000000000000000000000009ddfaca8183c41ad55329bdeed9f6a8d53168b1b"
          ],
          "data": "0x0000000000000000000000000000000000000000000000001bc16d674ec80000000000000000000000000000000000000000000000000000000000000000004000000000000000000000000000000000000000000000000000000000000000206a7cdb64ddd9c2c187092b4451c2e3657caafa89efa8493d6d17c35cde60d8c7",
          "blockHash": "0xf973d8484e858e1b798df2c9145c6e97986aca52aac945ff467338229b0ac30b",
          "blockNumber": "0x99f3ef",
          "blockTimestamp": "0x69705660",
          "transactionHash": "0x9a504f8a1bfdef818df3285e14b1b5bbbfc709bffc79535e7a01b93e555af729",
          "transactionIndex": "0x33",
          "logIndex": "0x6b",
          "removed": false
        },
        {
          "address": "0x9ddfaca8183c41ad55329bdeed9f6a8d53168b1b",
          "topics": [
            "0x1ced9348ff549fceab2ac57cd3a9de38edaaab274b725ee82c23e8fc8c4eec7a",
            "0x6a7cdb64ddd9c2c187092b4451c2e3657caafa89efa8493d6d17c35cde60d8c7"
          ],
          "data": "0x00000000000000000000000000000000000000000000000029a2241af62c00020000000000000000000000000000000000000000000000004563918244f40002",
          "blockHash": "0xf973d8484e858e1b798df2c9145c6e97986aca52aac945ff467338229b0ac30b",
          "blockNumber": "0x99f3ef",
          "blockTimestamp": "0x69705660",
          "transactionHash": "0x9a504f8a1bfdef818df3285e14b1b5bbbfc709bffc79535e7a01b93e555af729",
          "transactionIndex": "0x33",
          "logIndex": "0x6c",
          "removed": false
        }
      ],
      "logsBloom": "0x00000004000000000000000000000000000000000020000000000000020000000000000000000000000000000000000000000008000000000000040400000000000000000000000000000008000000000000000000000000000020000020000008000000000000000004000000000000000000000000000000000010000040000000000000000000000000010000800000000020000000000000000000000000000000000000000000000000010000000000000000000000000004000000000000000002000000080000000000000000000000000000000100000000000000000010000000000001800000000000000000000000000000000000000000000000",
      "type": "0x2",
      "transactionHash": "0x9a504f8a1bfdef818df3285e14b1b5bbbfc709bffc79535e7a01b93e555af729",
      "transactionIndex": "0x33",
      "blockHash": "0xf973d8484e858e1b798df2c9145c6e97986aca52aac945ff467338229b0ac30b",
      "blockNumber": "0x99f3ef",
      "gasUsed": "0xf0e5",
      "effectiveGasPrice": "0x39cd4d52",
      "from": "0x193ec3560f854e808731ec054406dac0d70c2d18",
      "to": "0x779877a7b0d9e8603169ddbd7836e478b4624789",
      "contractAddress": null
    }
  ],
  "libraries": [],
  "pending": [],
  "returns": {},
  "timestamp": 1768969826677,
  "chain": 11155111,
  "commit": "d19007c"
}